{
  "_format": "hh-sol-artifact-1",
  "contractName": "DropERC721",
  "sourceName": "contracts/drop/DropERC721.sol",
  "abi": [
    {
      "inputs": [],
      "stateMutability": "nonpayable",
      "type": "constructor"
    },
    {
      "anonymous": false,
      "inputs": [
        {
          "indexed": true,
          "internalType": "address",
          "name": "owner",
          "type": "address"
        },
        {
          "indexed": true,
          "internalType": "address",
          "name": "approved",
          "type": "address"
        },
        {
          "indexed": true,
          "internalType": "uint256",
          "name": "tokenId",
          "type": "uint256"
        }
      ],
      "name": "Approval",
      "type": "event"
    },
    {
      "anonymous": false,
      "inputs": [
        {
          "indexed": true,
          "internalType": "address",
          "name": "owner",
          "type": "address"
        },
        {
          "indexed": true,
          "internalType": "address",
          "name": "operator",
          "type": "address"
        },
        {
          "indexed": false,
          "internalType": "bool",
          "name": "approved",
          "type": "bool"
        }
      ],
      "name": "ApprovalForAll",
      "type": "event"
    },
    {
      "anonymous": false,
      "inputs": [
        {
          "components": [
            {
              "internalType": "uint256",
              "name": "startTimestamp",
              "type": "uint256"
            },
            {
              "internalType": "uint256",
              "name": "maxClaimableSupply",
              "type": "uint256"
            },
            {
              "internalType": "uint256",
              "name": "supplyClaimed",
              "type": "uint256"
            },
            {
              "internalType": "uint256",
              "name": "quantityLimitPerTransaction",
              "type": "uint256"
            },
            {
              "internalType": "uint256",
              "name": "waitTimeInSecondsBetweenClaims",
              "type": "uint256"
            },
            {
              "internalType": "bytes32",
              "name": "merkleRoot",
              "type": "bytes32"
            },
            {
              "internalType": "uint256",
              "name": "pricePerToken",
              "type": "uint256"
            },
            {
              "internalType": "address",
              "name": "currency",
              "type": "address"
            }
          ],
          "indexed": false,
          "internalType": "struct IDropClaimCondition.ClaimCondition[]",
          "name": "claimConditions",
          "type": "tuple[]"
        }
      ],
      "name": "ClaimConditionsUpdated",
      "type": "event"
    },
    {
      "anonymous": false,
      "inputs": [
        {
          "indexed": false,
          "internalType": "address",
          "name": "newRoyaltyRecipient",
          "type": "address"
        },
        {
          "indexed": false,
          "internalType": "uint256",
          "name": "newRoyaltyBps",
          "type": "uint256"
        }
      ],
      "name": "DefaultRoyalty",
      "type": "event"
    },
    {
      "anonymous": false,
      "inputs": [
        {
          "indexed": false,
          "internalType": "uint256",
          "name": "maxTotalSupply",
          "type": "uint256"
        }
      ],
      "name": "MaxTotalSupplyUpdated",
      "type": "event"
    },
    {
      "anonymous": false,
      "inputs": [
        {
          "indexed": false,
          "internalType": "uint256",
          "name": "count",
          "type": "uint256"
        }
      ],
      "name": "MaxWalletClaimCountUpdated",
      "type": "event"
    },
    {
      "anonymous": false,
      "inputs": [
        {
          "indexed": false,
          "internalType": "uint256",
          "name": "endTokenId",
          "type": "uint256"
        },
        {
          "indexed": false,
          "internalType": "string",
          "name": "revealedURI",
          "type": "string"
        }
      ],
      "name": "NFTRevealed",
      "type": "event"
    },
    {
      "anonymous": false,
      "inputs": [
        {
          "indexed": false,
          "internalType": "address",
          "name": "prevOwner",
          "type": "address"
        },
        {
          "indexed": false,
          "internalType": "address",
          "name": "newOwner",
          "type": "address"
        }
      ],
      "name": "OwnerUpdated",
      "type": "event"
    },
    {
      "anonymous": false,
      "inputs": [
        {
          "indexed": false,
          "internalType": "address",
          "name": "platformFeeRecipient",
          "type": "address"
        },
        {
          "indexed": false,
          "internalType": "uint256",
          "name": "platformFeeBps",
          "type": "uint256"
        }
      ],
      "name": "PlatformFeeInfoUpdated",
      "type": "event"
    },
    {
      "anonymous": false,
      "inputs": [
        {
          "indexed": true,
          "internalType": "address",
          "name": "recipient",
          "type": "address"
        }
      ],
      "name": "PrimarySaleRecipientUpdated",
      "type": "event"
    },
    {
      "anonymous": false,
      "inputs": [
        {
          "indexed": true,
          "internalType": "bytes32",
          "name": "role",
          "type": "bytes32"
        },
        {
          "indexed": true,
          "internalType": "bytes32",
          "name": "previousAdminRole",
          "type": "bytes32"
        },
        {
          "indexed": true,
          "internalType": "bytes32",
          "name": "newAdminRole",
          "type": "bytes32"
        }
      ],
      "name": "RoleAdminChanged",
      "type": "event"
    },
    {
      "anonymous": false,
      "inputs": [
        {
          "indexed": true,
          "internalType": "bytes32",
          "name": "role",
          "type": "bytes32"
        },
        {
          "indexed": true,
          "internalType": "address",
          "name": "account",
          "type": "address"
        },
        {
          "indexed": true,
          "internalType": "address",
          "name": "sender",
          "type": "address"
        }
      ],
      "name": "RoleGranted",
      "type": "event"
    },
    {
      "anonymous": false,
      "inputs": [
        {
          "indexed": true,
          "internalType": "bytes32",
          "name": "role",
          "type": "bytes32"
        },
        {
          "indexed": true,
          "internalType": "address",
          "name": "account",
          "type": "address"
        },
        {
          "indexed": true,
          "internalType": "address",
          "name": "sender",
          "type": "address"
        }
      ],
      "name": "RoleRevoked",
      "type": "event"
    },
    {
      "anonymous": false,
      "inputs": [
        {
          "indexed": true,
          "internalType": "uint256",
          "name": "tokenId",
          "type": "uint256"
        },
        {
          "indexed": false,
          "internalType": "address",
          "name": "royaltyRecipient",
          "type": "address"
        },
        {
          "indexed": false,
          "internalType": "uint256",
          "name": "royaltyBps",
          "type": "uint256"
        }
      ],
      "name": "RoyaltyForToken",
      "type": "event"
    },
    {
      "anonymous": false,
      "inputs": [
        {
          "indexed": true,
          "internalType": "uint256",
          "name": "claimConditionIndex",
          "type": "uint256"
        },
        {
          "indexed": true,
          "internalType": "address",
          "name": "claimer",
          "type": "address"
        },
        {
          "indexed": true,
          "internalType": "address",
          "name": "receiver",
          "type": "address"
        },
        {
          "indexed": false,
          "internalType": "uint256",
          "name": "startTokenId",
          "type": "uint256"
        },
        {
          "indexed": false,
          "internalType": "uint256",
          "name": "quantityClaimed",
          "type": "uint256"
        }
      ],
      "name": "TokensClaimed",
      "type": "event"
    },
    {
      "anonymous": false,
      "inputs": [
        {
          "indexed": false,
          "internalType": "uint256",
          "name": "startTokenId",
          "type": "uint256"
        },
        {
          "indexed": false,
          "internalType": "uint256",
          "name": "endTokenId",
          "type": "uint256"
        },
        {
          "indexed": false,
          "internalType": "string",
          "name": "baseURI",
          "type": "string"
        },
        {
          "indexed": false,
          "internalType": "bytes",
          "name": "encryptedBaseURI",
          "type": "bytes"
        }
      ],
      "name": "TokensLazyMinted",
      "type": "event"
    },
    {
      "anonymous": false,
      "inputs": [
        {
          "indexed": true,
          "internalType": "address",
          "name": "from",
          "type": "address"
        },
        {
          "indexed": true,
          "internalType": "address",
          "name": "to",
          "type": "address"
        },
        {
          "indexed": true,
          "internalType": "uint256",
          "name": "tokenId",
          "type": "uint256"
        }
      ],
      "name": "Transfer",
      "type": "event"
    },
    {
      "anonymous": false,
      "inputs": [
        {
          "indexed": true,
          "internalType": "address",
          "name": "wallet",
          "type": "address"
        },
        {
          "indexed": false,
          "internalType": "uint256",
          "name": "count",
          "type": "uint256"
        }
      ],
      "name": "WalletClaimCountUpdated",
      "type": "event"
    },
    {
      "inputs": [],
      "name": "DEFAULT_ADMIN_ROLE",
      "outputs": [
        {
          "internalType": "bytes32",
          "name": "",
          "type": "bytes32"
        }
      ],
      "stateMutability": "view",
      "type": "function"
    },
    {
      "inputs": [
        {
          "internalType": "address",
          "name": "to",
          "type": "address"
        },
        {
          "internalType": "uint256",
          "name": "tokenId",
          "type": "uint256"
        }
      ],
      "name": "approve",
      "outputs": [],
      "stateMutability": "nonpayable",
      "type": "function"
    },
    {
      "inputs": [
        {
          "internalType": "address",
          "name": "owner",
          "type": "address"
        }
      ],
      "name": "balanceOf",
      "outputs": [
        {
          "internalType": "uint256",
          "name": "",
          "type": "uint256"
        }
      ],
      "stateMutability": "view",
      "type": "function"
    },
    {
      "inputs": [
        {
          "internalType": "uint256",
          "name": "",
          "type": "uint256"
        }
      ],
      "name": "baseURIIndices",
      "outputs": [
        {
          "internalType": "uint256",
          "name": "",
          "type": "uint256"
        }
      ],
      "stateMutability": "view",
      "type": "function"
    },
    {
      "inputs": [
        {
          "internalType": "uint256",
          "name": "tokenId",
          "type": "uint256"
        }
      ],
      "name": "burn",
      "outputs": [],
      "stateMutability": "nonpayable",
      "type": "function"
    },
    {
      "inputs": [
        {
          "internalType": "address",
          "name": "_receiver",
          "type": "address"
        },
        {
          "internalType": "uint256",
          "name": "_quantity",
          "type": "uint256"
        },
        {
          "internalType": "address",
          "name": "_currency",
          "type": "address"
        },
        {
          "internalType": "uint256",
          "name": "_pricePerToken",
          "type": "uint256"
        },
        {
          "internalType": "bytes32[]",
          "name": "_proofs",
          "type": "bytes32[]"
        },
        {
          "internalType": "uint256",
          "name": "_proofMaxQuantityPerTransaction",
          "type": "uint256"
        }
      ],
      "name": "claim",
      "outputs": [],
      "stateMutability": "payable",
      "type": "function"
    },
    {
      "inputs": [],
      "name": "claimCondition",
      "outputs": [
        {
          "internalType": "uint256",
          "name": "currentStartId",
          "type": "uint256"
        },
        {
          "internalType": "uint256",
          "name": "count",
          "type": "uint256"
        }
      ],
      "stateMutability": "view",
      "type": "function"
    },
    {
      "inputs": [],
      "name": "contractType",
      "outputs": [
        {
          "internalType": "bytes32",
          "name": "",
          "type": "bytes32"
        }
      ],
      "stateMutability": "pure",
      "type": "function"
    },
    {
      "inputs": [],
      "name": "contractURI",
      "outputs": [
        {
          "internalType": "string",
          "name": "",
          "type": "string"
        }
      ],
      "stateMutability": "view",
      "type": "function"
    },
    {
      "inputs": [],
      "name": "contractVersion",
      "outputs": [
        {
          "internalType": "uint8",
          "name": "",
          "type": "uint8"
        }
      ],
      "stateMutability": "pure",
      "type": "function"
    },
    {
      "inputs": [
        {
          "internalType": "bytes",
          "name": "data",
          "type": "bytes"
        },
        {
          "internalType": "bytes",
          "name": "key",
          "type": "bytes"
        }
      ],
      "name": "encryptDecrypt",
      "outputs": [
        {
          "internalType": "bytes",
          "name": "result",
          "type": "bytes"
        }
      ],
      "stateMutability": "pure",
      "type": "function"
    },
    {
      "inputs": [
        {
          "internalType": "uint256",
          "name": "",
          "type": "uint256"
        }
      ],
      "name": "encryptedBaseURI",
      "outputs": [
        {
          "internalType": "bytes",
          "name": "",
          "type": "bytes"
        }
      ],
      "stateMutability": "view",
      "type": "function"
    },
    {
      "inputs": [],
      "name": "getActiveClaimConditionId",
      "outputs": [
        {
          "internalType": "uint256",
          "name": "",
          "type": "uint256"
        }
      ],
      "stateMutability": "view",
      "type": "function"
    },
    {
      "inputs": [
        {
          "internalType": "uint256",
          "name": "tokenId",
          "type": "uint256"
        }
      ],
      "name": "getApproved",
      "outputs": [
        {
          "internalType": "address",
          "name": "",
          "type": "address"
        }
      ],
      "stateMutability": "view",
      "type": "function"
    },
    {
      "inputs": [],
      "name": "getBaseURICount",
      "outputs": [
        {
          "internalType": "uint256",
          "name": "",
          "type": "uint256"
        }
      ],
      "stateMutability": "view",
      "type": "function"
    },
    {
      "inputs": [
        {
          "internalType": "uint256",
          "name": "_conditionId",
          "type": "uint256"
        }
      ],
      "name": "getClaimConditionById",
      "outputs": [
        {
          "components": [
            {
              "internalType": "uint256",
              "name": "startTimestamp",
              "type": "uint256"
            },
            {
              "internalType": "uint256",
              "name": "maxClaimableSupply",
              "type": "uint256"
            },
            {
              "internalType": "uint256",
              "name": "supplyClaimed",
              "type": "uint256"
            },
            {
              "internalType": "uint256",
              "name": "quantityLimitPerTransaction",
              "type": "uint256"
            },
            {
              "internalType": "uint256",
              "name": "waitTimeInSecondsBetweenClaims",
              "type": "uint256"
            },
            {
              "internalType": "bytes32",
              "name": "merkleRoot",
              "type": "bytes32"
            },
            {
              "internalType": "uint256",
              "name": "pricePerToken",
              "type": "uint256"
            },
            {
              "internalType": "address",
              "name": "currency",
              "type": "address"
            }
          ],
          "internalType": "struct IDropClaimCondition.ClaimCondition",
          "name": "condition",
          "type": "tuple"
        }
      ],
      "stateMutability": "view",
      "type": "function"
    },
    {
      "inputs": [
        {
          "internalType": "uint256",
          "name": "_conditionId",
          "type": "uint256"
        },
        {
          "internalType": "address",
          "name": "_claimer",
          "type": "address"
        }
      ],
      "name": "getClaimTimestamp",
      "outputs": [
        {
          "internalType": "uint256",
          "name": "lastClaimTimestamp",
          "type": "uint256"
        },
        {
          "internalType": "uint256",
          "name": "nextValidClaimTimestamp",
          "type": "uint256"
        }
      ],
      "stateMutability": "view",
      "type": "function"
    },
    {
      "inputs": [],
      "name": "getDefaultRoyaltyInfo",
      "outputs": [
        {
          "internalType": "address",
          "name": "",
          "type": "address"
        },
        {
          "internalType": "uint16",
          "name": "",
          "type": "uint16"
        }
      ],
      "stateMutability": "view",
      "type": "function"
    },
    {
      "inputs": [],
      "name": "getPlatformFeeInfo",
      "outputs": [
        {
          "internalType": "address",
          "name": "",
          "type": "address"
        },
        {
          "internalType": "uint16",
          "name": "",
          "type": "uint16"
        }
      ],
      "stateMutability": "view",
      "type": "function"
    },
    {
      "inputs": [
        {
          "internalType": "bytes32",
          "name": "role",
          "type": "bytes32"
        }
      ],
      "name": "getRoleAdmin",
      "outputs": [
        {
          "internalType": "bytes32",
          "name": "",
          "type": "bytes32"
        }
      ],
      "stateMutability": "view",
      "type": "function"
    },
    {
      "inputs": [
        {
          "internalType": "bytes32",
          "name": "role",
          "type": "bytes32"
        },
        {
          "internalType": "uint256",
          "name": "index",
          "type": "uint256"
        }
      ],
      "name": "getRoleMember",
      "outputs": [
        {
          "internalType": "address",
          "name": "",
          "type": "address"
        }
      ],
      "stateMutability": "view",
      "type": "function"
    },
    {
      "inputs": [
        {
          "internalType": "bytes32",
          "name": "role",
          "type": "bytes32"
        }
      ],
      "name": "getRoleMemberCount",
      "outputs": [
        {
          "internalType": "uint256",
          "name": "",
          "type": "uint256"
        }
      ],
      "stateMutability": "view",
      "type": "function"
    },
    {
      "inputs": [
        {
          "internalType": "uint256",
          "name": "_tokenId",
          "type": "uint256"
        }
      ],
      "name": "getRoyaltyInfoForToken",
      "outputs": [
        {
          "internalType": "address",
          "name": "",
          "type": "address"
        },
        {
          "internalType": "uint16",
          "name": "",
          "type": "uint16"
        }
      ],
      "stateMutability": "view",
      "type": "function"
    },
    {
      "inputs": [
        {
          "internalType": "bytes32",
          "name": "role",
          "type": "bytes32"
        },
        {
          "internalType": "address",
          "name": "account",
          "type": "address"
        }
      ],
      "name": "grantRole",
      "outputs": [],
      "stateMutability": "nonpayable",
      "type": "function"
    },
    {
      "inputs": [
        {
          "internalType": "bytes32",
          "name": "role",
          "type": "bytes32"
        },
        {
          "internalType": "address",
          "name": "account",
          "type": "address"
        }
      ],
      "name": "hasRole",
      "outputs": [
        {
          "internalType": "bool",
          "name": "",
          "type": "bool"
        }
      ],
      "stateMutability": "view",
      "type": "function"
    },
    {
      "inputs": [
        {
          "internalType": "address",
          "name": "_defaultAdmin",
          "type": "address"
        },
        {
          "internalType": "string",
          "name": "_name",
          "type": "string"
        },
        {
          "internalType": "string",
          "name": "_symbol",
          "type": "string"
        },
        {
          "internalType": "string",
          "name": "_contractURI",
          "type": "string"
        },
        {
          "internalType": "address[]",
          "name": "_trustedForwarders",
          "type": "address[]"
        },
        {
          "internalType": "address",
          "name": "_saleRecipient",
          "type": "address"
        },
        {
          "internalType": "address",
          "name": "_royaltyRecipient",
          "type": "address"
        },
        {
          "internalType": "uint128",
          "name": "_royaltyBps",
          "type": "uint128"
        },
        {
          "internalType": "uint128",
          "name": "_platformFeeBps",
          "type": "uint128"
        },
        {
          "internalType": "address",
          "name": "_platformFeeRecipient",
          "type": "address"
        }
      ],
      "name": "initialize",
      "outputs": [],
      "stateMutability": "nonpayable",
      "type": "function"
    },
    {
      "inputs": [
        {
          "internalType": "address",
          "name": "owner",
          "type": "address"
        },
        {
          "internalType": "address",
          "name": "operator",
          "type": "address"
        }
      ],
      "name": "isApprovedForAll",
      "outputs": [
        {
          "internalType": "bool",
          "name": "",
          "type": "bool"
        }
      ],
      "stateMutability": "view",
      "type": "function"
    },
    {
      "inputs": [
        {
          "internalType": "address",
          "name": "forwarder",
          "type": "address"
        }
      ],
      "name": "isTrustedForwarder",
      "outputs": [
        {
          "internalType": "bool",
          "name": "",
          "type": "bool"
        }
      ],
      "stateMutability": "view",
      "type": "function"
    },
    {
      "inputs": [
        {
          "internalType": "uint256",
          "name": "_amount",
          "type": "uint256"
        },
        {
          "internalType": "string",
          "name": "_baseURIForTokens",
          "type": "string"
        },
        {
          "internalType": "bytes",
          "name": "_encryptedBaseURI",
          "type": "bytes"
        }
      ],
      "name": "lazyMint",
      "outputs": [],
      "stateMutability": "nonpayable",
      "type": "function"
    },
    {
      "inputs": [],
      "name": "maxTotalSupply",
      "outputs": [
        {
          "internalType": "uint256",
          "name": "",
          "type": "uint256"
        }
      ],
      "stateMutability": "view",
      "type": "function"
    },
    {
      "inputs": [],
      "name": "maxWalletClaimCount",
      "outputs": [
        {
          "internalType": "uint256",
          "name": "",
          "type": "uint256"
        }
      ],
      "stateMutability": "view",
      "type": "function"
    },
    {
      "inputs": [
        {
          "internalType": "bytes[]",
          "name": "data",
          "type": "bytes[]"
        }
      ],
      "name": "multicall",
      "outputs": [
        {
          "internalType": "bytes[]",
          "name": "results",
          "type": "bytes[]"
        }
      ],
      "stateMutability": "nonpayable",
      "type": "function"
    },
    {
      "inputs": [],
      "name": "name",
      "outputs": [
        {
          "internalType": "string",
          "name": "",
          "type": "string"
        }
      ],
      "stateMutability": "view",
      "type": "function"
    },
    {
      "inputs": [],
      "name": "nextTokenIdToClaim",
      "outputs": [
        {
          "internalType": "uint256",
          "name": "",
          "type": "uint256"
        }
      ],
      "stateMutability": "view",
      "type": "function"
    },
    {
      "inputs": [],
      "name": "nextTokenIdToMint",
      "outputs": [
        {
          "internalType": "uint256",
          "name": "",
          "type": "uint256"
        }
      ],
      "stateMutability": "view",
      "type": "function"
    },
    {
      "inputs": [],
      "name": "owner",
      "outputs": [
        {
          "internalType": "address",
          "name": "",
          "type": "address"
        }
      ],
      "stateMutability": "view",
      "type": "function"
    },
    {
      "inputs": [
        {
          "internalType": "uint256",
          "name": "tokenId",
          "type": "uint256"
        }
      ],
      "name": "ownerOf",
      "outputs": [
        {
          "internalType": "address",
          "name": "",
          "type": "address"
        }
      ],
      "stateMutability": "view",
      "type": "function"
    },
    {
      "inputs": [],
      "name": "primarySaleRecipient",
      "outputs": [
        {
          "internalType": "address",
          "name": "",
          "type": "address"
        }
      ],
      "stateMutability": "view",
      "type": "function"
    },
    {
      "inputs": [
        {
          "internalType": "bytes32",
          "name": "role",
          "type": "bytes32"
        },
        {
          "internalType": "address",
          "name": "account",
          "type": "address"
        }
      ],
      "name": "renounceRole",
      "outputs": [],
      "stateMutability": "nonpayable",
      "type": "function"
    },
    {
      "inputs": [
        {
          "internalType": "uint256",
          "name": "index",
          "type": "uint256"
        },
        {
          "internalType": "bytes",
          "name": "_key",
          "type": "bytes"
        }
      ],
      "name": "reveal",
      "outputs": [
        {
          "internalType": "string",
          "name": "revealedURI",
          "type": "string"
        }
      ],
      "stateMutability": "nonpayable",
      "type": "function"
    },
    {
      "inputs": [
        {
          "internalType": "bytes32",
          "name": "role",
          "type": "bytes32"
        },
        {
          "internalType": "address",
          "name": "account",
          "type": "address"
        }
      ],
      "name": "revokeRole",
      "outputs": [],
      "stateMutability": "nonpayable",
      "type": "function"
    },
    {
      "inputs": [
        {
          "internalType": "uint256",
          "name": "tokenId",
          "type": "uint256"
        },
        {
          "internalType": "uint256",
          "name": "salePrice",
          "type": "uint256"
        }
      ],
      "name": "royaltyInfo",
      "outputs": [
        {
          "internalType": "address",
          "name": "receiver",
          "type": "address"
        },
        {
          "internalType": "uint256",
          "name": "royaltyAmount",
          "type": "uint256"
        }
      ],
      "stateMutability": "view",
      "type": "function"
    },
    {
      "inputs": [
        {
          "internalType": "address",
          "name": "from",
          "type": "address"
        },
        {
          "internalType": "address",
          "name": "to",
          "type": "address"
        },
        {
          "internalType": "uint256",
          "name": "tokenId",
          "type": "uint256"
        }
      ],
      "name": "safeTransferFrom",
      "outputs": [],
      "stateMutability": "nonpayable",
      "type": "function"
    },
    {
      "inputs": [
        {
          "internalType": "address",
          "name": "from",
          "type": "address"
        },
        {
          "internalType": "address",
          "name": "to",
          "type": "address"
        },
        {
          "internalType": "uint256",
          "name": "tokenId",
          "type": "uint256"
        },
        {
          "internalType": "bytes",
          "name": "_data",
          "type": "bytes"
        }
      ],
      "name": "safeTransferFrom",
      "outputs": [],
      "stateMutability": "nonpayable",
      "type": "function"
    },
    {
      "inputs": [
        {
          "internalType": "address",
          "name": "operator",
          "type": "address"
        },
        {
          "internalType": "bool",
          "name": "approved",
          "type": "bool"
        }
      ],
      "name": "setApprovalForAll",
      "outputs": [],
      "stateMutability": "nonpayable",
      "type": "function"
    },
    {
      "inputs": [
        {
          "components": [
            {
              "internalType": "uint256",
              "name": "startTimestamp",
              "type": "uint256"
            },
            {
              "internalType": "uint256",
              "name": "maxClaimableSupply",
              "type": "uint256"
            },
            {
              "internalType": "uint256",
              "name": "supplyClaimed",
              "type": "uint256"
            },
            {
              "internalType": "uint256",
              "name": "quantityLimitPerTransaction",
              "type": "uint256"
            },
            {
              "internalType": "uint256",
              "name": "waitTimeInSecondsBetweenClaims",
              "type": "uint256"
            },
            {
              "internalType": "bytes32",
              "name": "merkleRoot",
              "type": "bytes32"
            },
            {
              "internalType": "uint256",
              "name": "pricePerToken",
              "type": "uint256"
            },
            {
              "internalType": "address",
              "name": "currency",
              "type": "address"
            }
          ],
          "internalType": "struct IDropClaimCondition.ClaimCondition[]",
          "name": "_phases",
          "type": "tuple[]"
        },
        {
          "internalType": "bool",
          "name": "_resetClaimEligibility",
          "type": "bool"
        }
      ],
      "name": "setClaimConditions",
      "outputs": [],
      "stateMutability": "nonpayable",
      "type": "function"
    },
    {
      "inputs": [
        {
          "internalType": "string",
          "name": "_uri",
          "type": "string"
        }
      ],
      "name": "setContractURI",
      "outputs": [],
      "stateMutability": "nonpayable",
      "type": "function"
    },
    {
      "inputs": [
        {
          "internalType": "address",
          "name": "_royaltyRecipient",
          "type": "address"
        },
        {
          "internalType": "uint256",
          "name": "_royaltyBps",
          "type": "uint256"
        }
      ],
      "name": "setDefaultRoyaltyInfo",
      "outputs": [],
      "stateMutability": "nonpayable",
      "type": "function"
    },
    {
      "inputs": [
        {
          "internalType": "uint256",
          "name": "_maxTotalSupply",
          "type": "uint256"
        }
      ],
      "name": "setMaxTotalSupply",
      "outputs": [],
      "stateMutability": "nonpayable",
      "type": "function"
    },
    {
      "inputs": [
        {
          "internalType": "uint256",
          "name": "_count",
          "type": "uint256"
        }
      ],
      "name": "setMaxWalletClaimCount",
      "outputs": [],
      "stateMutability": "nonpayable",
      "type": "function"
    },
    {
      "inputs": [
        {
          "internalType": "address",
          "name": "_newOwner",
          "type": "address"
        }
      ],
      "name": "setOwner",
      "outputs": [],
      "stateMutability": "nonpayable",
      "type": "function"
    },
    {
      "inputs": [
        {
          "internalType": "address",
          "name": "_platformFeeRecipient",
          "type": "address"
        },
        {
          "internalType": "uint256",
          "name": "_platformFeeBps",
          "type": "uint256"
        }
      ],
      "name": "setPlatformFeeInfo",
      "outputs": [],
      "stateMutability": "nonpayable",
      "type": "function"
    },
    {
      "inputs": [
        {
          "internalType": "address",
          "name": "_saleRecipient",
          "type": "address"
        }
      ],
      "name": "setPrimarySaleRecipient",
      "outputs": [],
      "stateMutability": "nonpayable",
      "type": "function"
    },
    {
      "inputs": [
        {
          "internalType": "uint256",
          "name": "_tokenId",
          "type": "uint256"
        },
        {
          "internalType": "address",
          "name": "_recipient",
          "type": "address"
        },
        {
          "internalType": "uint256",
          "name": "_bps",
          "type": "uint256"
        }
      ],
      "name": "setRoyaltyInfoForToken",
      "outputs": [],
      "stateMutability": "nonpayable",
      "type": "function"
    },
    {
      "inputs": [
        {
          "internalType": "address",
          "name": "_claimer",
          "type": "address"
        },
        {
          "internalType": "uint256",
          "name": "_count",
          "type": "uint256"
        }
      ],
      "name": "setWalletClaimCount",
      "outputs": [],
      "stateMutability": "nonpayable",
      "type": "function"
    },
    {
      "inputs": [
        {
          "internalType": "bytes4",
          "name": "interfaceId",
          "type": "bytes4"
        }
      ],
      "name": "supportsInterface",
      "outputs": [
        {
          "internalType": "bool",
          "name": "",
          "type": "bool"
        }
      ],
      "stateMutability": "view",
      "type": "function"
    },
    {
      "inputs": [],
      "name": "symbol",
      "outputs": [
        {
          "internalType": "string",
          "name": "",
          "type": "string"
        }
      ],
      "stateMutability": "view",
      "type": "function"
    },
    {
      "inputs": [
        {
          "internalType": "uint256",
          "name": "index",
          "type": "uint256"
        }
      ],
      "name": "tokenByIndex",
      "outputs": [
        {
          "internalType": "uint256",
          "name": "",
          "type": "uint256"
        }
      ],
      "stateMutability": "view",
      "type": "function"
    },
    {
      "inputs": [
        {
          "internalType": "address",
          "name": "owner",
          "type": "address"
        },
        {
          "internalType": "uint256",
          "name": "index",
          "type": "uint256"
        }
      ],
      "name": "tokenOfOwnerByIndex",
      "outputs": [
        {
          "internalType": "uint256",
          "name": "",
          "type": "uint256"
        }
      ],
      "stateMutability": "view",
      "type": "function"
    },
    {
      "inputs": [
        {
          "internalType": "uint256",
          "name": "_tokenId",
          "type": "uint256"
        }
      ],
      "name": "tokenURI",
      "outputs": [
        {
          "internalType": "string",
          "name": "",
          "type": "string"
        }
      ],
      "stateMutability": "view",
      "type": "function"
    },
    {
      "inputs": [],
      "name": "totalSupply",
      "outputs": [
        {
          "internalType": "uint256",
          "name": "",
          "type": "uint256"
        }
      ],
      "stateMutability": "view",
      "type": "function"
    },
    {
      "inputs": [
        {
          "internalType": "address",
          "name": "from",
          "type": "address"
        },
        {
          "internalType": "address",
          "name": "to",
          "type": "address"
        },
        {
          "internalType": "uint256",
          "name": "tokenId",
          "type": "uint256"
        }
      ],
      "name": "transferFrom",
      "outputs": [],
      "stateMutability": "nonpayable",
      "type": "function"
    },
    {
      "inputs": [
        {
          "internalType": "uint256",
          "name": "_conditionId",
          "type": "uint256"
        },
        {
          "internalType": "address",
          "name": "_claimer",
          "type": "address"
        },
        {
          "internalType": "uint256",
          "name": "_quantity",
          "type": "uint256"
        },
        {
          "internalType": "address",
          "name": "_currency",
          "type": "address"
        },
        {
          "internalType": "uint256",
          "name": "_pricePerToken",
          "type": "uint256"
        },
        {
          "internalType": "bool",
          "name": "verifyMaxQuantityPerTransaction",
          "type": "bool"
        }
      ],
      "name": "verifyClaim",
      "outputs": [],
      "stateMutability": "view",
      "type": "function"
    },
    {
      "inputs": [
        {
          "internalType": "uint256",
          "name": "_conditionId",
          "type": "uint256"
        },
        {
          "internalType": "address",
          "name": "_claimer",
          "type": "address"
        },
        {
          "internalType": "uint256",
          "name": "_quantity",
          "type": "uint256"
        },
        {
          "internalType": "bytes32[]",
          "name": "_proofs",
          "type": "bytes32[]"
        },
        {
          "internalType": "uint256",
          "name": "_proofMaxQuantityPerTransaction",
          "type": "uint256"
        }
      ],
      "name": "verifyClaimMerkleProof",
      "outputs": [
        {
          "internalType": "bool",
          "name": "validMerkleProof",
          "type": "bool"
        },
        {
          "internalType": "uint256",
          "name": "merkleProofIndex",
          "type": "uint256"
        }
      ],
      "stateMutability": "view",
      "type": "function"
    },
    {
      "inputs": [
        {
          "internalType": "address",
          "name": "",
          "type": "address"
        }
      ],
      "name": "walletClaimCount",
      "outputs": [
        {
          "internalType": "uint256",
          "name": "",
          "type": "uint256"
        }
      ],
      "stateMutability": "view",
      "type": "function"
    }
  ],
  "bytecode": "0x60806040523480156200001157600080fd5b50600054610100900460ff166200002f5760005460ff161562000039565b62000039620000de565b620000a15760405162461bcd60e51b815260206004820152602e60248201527f496e697469616c697a61626c653a20636f6e747261637420697320616c72656160448201526d191e481a5b9a5d1a585b1a5e995960921b606482015260840160405180910390fd5b600054610100900460ff16158015620000c4576000805461ffff19166101011790555b8015620000d7576000805461ff00191690555b506200010b565b6000620000f630620000fc60201b620030871760201c565b15905090565b6001600160a01b03163b151590565b615eff806200011b6000396000f3fe6080604052600436106103de5760003560e01c80637a5a8e7e1161020d578063b24f2d3911610128578063d45573f6116100bb578063e15916341161008a578063e71503221161006f578063e715032214610cd7578063e8a3d48514610cf7578063e985e9c514610d0c57600080fd5b8063e159163414610c97578063e23b816414610cb757600080fd5b8063d45573f614610c0e578063d547741f14610c3a578063d637ed5914610c5a578063d860483f14610c7757600080fd5b8063ca15c873116100f7578063ca15c87314610b7b578063cb2ef6f714610b9b578063ce80564214610bce578063d37c353b14610bee57600080fd5b8063b24f2d3914610afa578063b88d4fde14610b26578063c68907de14610b46578063c87b56dd14610b5b57600080fd5b80639bcf7a15116101a0578063ac9650d81161016f578063ac9650d814610a5f578063acd083f814610a8c578063af3be89014610aa3578063afb8291614610ada57600080fd5b80639bcf7a15146109ee578063a0a8e46014610a0e578063a217fddf14610a2a578063a22cb46514610a3f57600080fd5b80639010d07c116101dc5780639010d07c1461095357806391d1485414610973578063938e3d7b146109b957806395d89b41146109d957600080fd5b80637a5a8e7e146108d657806382909959146108e957806386ee745d146109095780638da5cb5b1461093e57600080fd5b80633b1475a7116102fd578063508679571161029057806363b45e2d1161025f57806363b45e2d146107f65780636f4f28371461080c5780636f8934f41461082c57806370a08231146108b657600080fd5b8063508679571461075d578063572b6c051461077d578063600dd5ea146107b65780636352211e146107d657600080fd5b806342966c68116102cc57806342966c68146106ad5780634352ab41146106cd5780634cc157df146106fb5780634f6ccce71461073d57600080fd5b80633b1475a7146106365780633ea33f291461064d5780633f3e4c111461066d57806342842e0e1461068d57600080fd5b80631e7ac488116103755780632ab4d052116103445780632ab4d052146105bf5780632f2ff15d146105d65780632f745c59146105f657806336568abe1461061657600080fd5b80631e7ac4881461051057806323b872dd14610530578063248a9ca3146105505780632a55205a1461058057600080fd5b8063081812fc116103b1578063081812fc14610498578063095ea7b3146104b857806313af4035146104da57806318160ddd146104fa57600080fd5b806301ffc9a7146103e3578063059817691461041857806306fdde031461043d578063079fe40e1461045f575b600080fd5b3480156103ef57600080fd5b506104036103fe366004615027565b610d56565b60405190151581526020015b60405180910390f35b34801561042457600080fd5b5061042f6101c75481565b60405190815260200161040f565b34801561044957600080fd5b50610452610d82565b60405161040f919061509c565b34801561046b57600080fd5b506101c654610480906001600160a01b031681565b6040516001600160a01b03909116815260200161040f565b3480156104a457600080fd5b506104806104b33660046150af565b610e15565b3480156104c457600080fd5b506104d86104d33660046150ed565b610eb1565b005b3480156104e657600080fd5b506104d86104f5366004615119565b610fd9565b34801561050657600080fd5b506101935461042f565b34801561051c57600080fd5b506104d861052b3660046150ed565b6110d7565b34801561053c57600080fd5b506104d861054b366004615136565b6111b1565b34801561055c57600080fd5b5061042f61056b3660046150af565b600090815260fb602052604090206001015490565b34801561058c57600080fd5b506105a061059b366004615177565b61123f565b604080516001600160a01b03909316835260208301919091520161040f565b3480156105cb57600080fd5b5061042f6101c85481565b3480156105e257600080fd5b506104d86105f1366004615199565b61127c565b34801561060257600080fd5b5061042f6106113660046150ed565b6112a4565b34801561062257600080fd5b506104d8610631366004615199565b61134d565b34801561064257600080fd5b5061042f6101c45481565b34801561065957600080fd5b506104d86106683660046150ed565b6113e9565b34801561067957600080fd5b506104d86106883660046150af565b611452565b34801561069957600080fd5b506104d86106a8366004615136565b6114f0565b3480156106b957600080fd5b506104d86106c83660046150af565b61150b565b3480156106d957600080fd5b5061042f6106e8366004615119565b6101d46020526000908152604090205481565b34801561070757600080fd5b5061071b6107163660046150af565b61156e565b604080516001600160a01b03909316835261ffff90911660208301520161040f565b34801561074957600080fd5b5061042f6107583660046150af565b6115db565b34801561076957600080fd5b506104d86107783660046150af565b611681565b34801561078957600080fd5b50610403610798366004615119565b6001600160a01b031660009081526065602052604090205460ff1690565b3480156107c257600080fd5b506104d86107d13660046150ed565b6116c5565b3480156107e257600080fd5b506104806107f13660046150af565b611782565b34801561080257600080fd5b506101cc5461042f565b34801561081857600080fd5b506104d8610827366004615119565b61180e565b34801561083857600080fd5b5061084c6108473660046150af565b611868565b60405161040f9190600061010082019050825182526020830151602083015260408301516040830152606083015160608301526080830151608083015260a083015160a083015260c083015160c08301526001600160a01b0360e08401511660e083015292915050565b3480156108c257600080fd5b5061042f6108d1366004615119565b611934565b6104d86108e436600461520e565b6119cf565b3480156108f557600080fd5b506104526109043660046150af565b611bad565b34801561091557600080fd5b50610929610924366004615199565b611c48565b6040805192835260208301919091520161040f565b34801561094a57600080fd5b50610480611c92565b34801561095f57600080fd5b5061048061096e366004615177565b611ced565b34801561097f57600080fd5b5061040361098e366004615199565b600091825260fb602090815260408084206001600160a01b0393909316845291905290205460ff1690565b3480156109c557600080fd5b506104d86109d43660046152d5565b611d0d565b3480156109e557600080fd5b50610452611d2e565b3480156109fa57600080fd5b506104d8610a09366004615317565b611d3e565b348015610a1a57600080fd5b506040516002815260200161040f565b348015610a3657600080fd5b5061042f600081565b348015610a4b57600080fd5b506104d8610a5a36600461534c565b611e14565b348015610a6b57600080fd5b50610a7f610a7a36600461537a565b611e26565b60405161040f91906153b0565b348015610a9857600080fd5b5061042f6101c55481565b348015610aaf57600080fd5b50610ac3610abe366004615412565b611f1b565b60408051921515835260208301919091520161040f565b348015610ae657600080fd5b506104d8610af5366004615484565b61213f565b348015610b0657600080fd5b506101ca546001600160a01b03811690600160a01b900461ffff1661071b565b348015610b3257600080fd5b506104d8610b413660046155a2565b6124a9565b348015610b5257600080fd5b5061042f612538565b348015610b6757600080fd5b50610452610b763660046150af565b6125f1565b348015610b8757600080fd5b5061042f610b963660046150af565b612738565b348015610ba757600080fd5b507f44726f704552433732310000000000000000000000000000000000000000000061042f565b348015610bda57600080fd5b50610452610be936600461560e565b612750565b348015610bfa57600080fd5b506104d8610c0936600461565a565b612973565b348015610c1a57600080fd5b506101c9546001600160a01b03811690600160a01b900461ffff1661071b565b348015610c4657600080fd5b506104d8610c55366004615199565b612a8c565b348015610c6657600080fd5b506101cd546101ce54610929919082565b348015610c8357600080fd5b5061042f610c923660046150af565b612ab4565b348015610ca357600080fd5b506104d8610cb2366004615772565b612ad6565b348015610cc357600080fd5b506104d8610cd2366004615885565b612cf0565b348015610ce357600080fd5b50610452610cf236600461590b565b613004565b348015610d0357600080fd5b50610452613079565b348015610d1857600080fd5b50610403610d27366004615967565b6001600160a01b0391821660009081526101646020908152604080832093909416825291909152205460ff1690565b6000610d6182613096565b80610d7c575063152a902d60e11b6001600160e01b03198316145b92915050565b606061015f8054610d9290615995565b80601f0160208091040260200160405190810160405280929190818152602001828054610dbe90615995565b8015610e0b5780601f10610de057610100808354040283529160200191610e0b565b820191906000526020600020905b815481529060010190602001808311610dee57829003601f168201915b5050505050905090565b600081815261016160205260408120546001600160a01b0316610e945760405162461bcd60e51b815260206004820152602c60248201527f4552433732313a20617070726f76656420717565727920666f72206e6f6e657860448201526b34b9ba32b73a103a37b5b2b760a11b60648201526084015b60405180910390fd5b50600090815261016360205260409020546001600160a01b031690565b6000610ebc82611782565b9050806001600160a01b0316836001600160a01b03161415610f2a5760405162461bcd60e51b815260206004820152602160248201527f4552433732313a20617070726f76616c20746f2063757272656e74206f776e656044820152603960f91b6064820152608401610e8b565b806001600160a01b0316610f3c6130bb565b6001600160a01b03161480610f585750610f5881610d276130bb565b610fca5760405162461bcd60e51b815260206004820152603860248201527f4552433732313a20617070726f76652063616c6c6572206973206e6f74206f7760448201527f6e6572206e6f7220617070726f76656420666f7220616c6c00000000000000006064820152608401610e8b565b610fd483836130c5565b505050565b6000610fec81610fe76130bb565b613134565b6001600160a01b03821660009081527fc88390e7e62175be0932452175b6a7222b6b094ab0ef984a5153c620345d8975602052604090205460ff166110735760405162461bcd60e51b815260206004820152600660248201527f2141444d494e00000000000000000000000000000000000000000000000000006044820152606401610e8b565b6101c380546001600160a01b038481166001600160a01b031983168117909355604080519190921680825260208201939093527f8292fce18fa69edf4db7b94ea2e58241df0ae57f97e0a6c9b29067028bf92d7691015b60405180910390a1505050565b60006110e581610fe76130bb565b6127108211156111375760405162461bcd60e51b815260206004820152600a60248201527f3e204d41585f4250532e000000000000000000000000000000000000000000006044820152606401610e8b565b6101c9805475ffffffffffffffffffffffffffffffffffffffffffff1916600160a01b61ffff8516026001600160a01b031916176001600160a01b03851690811790915560408051918252602082018490527fe2497bd806ec41a6e0dd992c29a72efc0ef8fec9092d1978fd4a1e00b2f1830491016110ca565b6111c26111bc6130bb565b826131b4565b6112345760405162461bcd60e51b815260206004820152603160248201527f4552433732313a207472616e736665722063616c6c6572206973206e6f74206f60448201527f776e6572206e6f7220617070726f7665640000000000000000000000000000006064820152608401610e8b565b610fd48383836132ad565b60008060008061124e8661156e565b90945084925061ffff16905061271061126782876159e6565b6112719190615a1b565b925050509250929050565b600082815260fb602052604090206001015461129a81610fe76130bb565b610fd4838361346f565b60006112af83611934565b82106113235760405162461bcd60e51b815260206004820152602b60248201527f455243373231456e756d657261626c653a206f776e657220696e646578206f7560448201527f74206f6620626f756e64730000000000000000000000000000000000000000006064820152608401610e8b565b506001600160a01b0391909116600090815261019160209081526040808320938352929052205490565b6113556130bb565b6001600160a01b0316816001600160a01b0316146113db5760405162461bcd60e51b815260206004820152602f60248201527f416363657373436f6e74726f6c3a2063616e206f6e6c792072656e6f756e636560448201527f20726f6c657320666f722073656c6600000000000000000000000000000000006064820152608401610e8b565b6113e58282613492565b5050565b60006113f781610fe76130bb565b6001600160a01b03831660008181526101d4602052604090819020849055517f8973b95d42472e89416ea69404f8038c041db700af9ec294e7b4cd4e1ff2801c906114459085815260200190565b60405180910390a2505050565b600061146081610fe76130bb565b6101c45482106114b25760405162461bcd60e51b815260206004820152601d60248201527f6578697374696e67203e2064657369726564206d617820737570706c790000006044820152606401610e8b565b6101c88290556040518281527ff2672935fc79f5237559e2e2999dbe743bf65430894ac2b37666890e7c69e1af906020015b60405180910390a15050565b610fd4838383604051806020016040528060008152506124a9565b6115166111bc6130bb565b6115625760405162461bcd60e51b815260206004820152601d60248201527f63616c6c6572206e6f74206f776e6572206e6f7220617070726f7665640000006044820152606401610e8b565b61156b816134b5565b50565b60008181526101d560209081526040808320815180830190925280546001600160a01b0316808352600190910154928201929092528291156115b657805160208201516115d1565b6101ca546001600160a01b03811690600160a01b900461ffff165b9250925050915091565b60006115e76101935490565b821061165b5760405162461bcd60e51b815260206004820152602c60248201527f455243373231456e756d657261626c653a20676c6f62616c20696e646578206f60448201527f7574206f6620626f756e647300000000000000000000000000000000000000006064820152608401610e8b565b610193828154811061166f5761166f615a2f565b90600052602060002001549050919050565b600061168f81610fe76130bb565b6101c78290556040518281527ff9d383c69b6255cbd431ca23734f43bdf15e694c7494956c917498469bcbce73906020016114e4565b60006116d381610fe76130bb565b6127108211156117115760405162461bcd60e51b81526020600482015260096024820152683e204d41585f42505360b81b6044820152606401610e8b565b6101ca80546001600160a01b03851675ffffffffffffffffffffffffffffffffffffffffffff199091168117600160a01b61ffff8616021790915560408051918252602082018490527f90d7ec04bcb8978719414f82e52e4cb651db41d0e6f8cea6118c2191e6183adb91016110ca565b600081815261016160205260408120546001600160a01b031680610d7c5760405162461bcd60e51b815260206004820152602960248201527f4552433732313a206f776e657220717565727920666f72206e6f6e657869737460448201527f656e7420746f6b656e00000000000000000000000000000000000000000000006064820152608401610e8b565b600061181c81610fe76130bb565b6101c680546001600160a01b0319166001600160a01b0384169081179091556040517f299d17e95023f496e0ffc4909cff1a61f74bb5eb18de6f900f4155bfa1b3b33390600090a25050565b6118bc6040518061010001604052806000815260200160008152602001600081526020016000815260200160008152602001600080191681526020016000815260200160006001600160a01b031681525090565b5060009081526101cf6020908152604091829020825161010081018452815481526001820154928101929092526002810154928201929092526003820154606082015260048201546080820152600582015460a0820152600682015460c08201526007909101546001600160a01b031660e082015290565b60006001600160a01b0382166119b25760405162461bcd60e51b815260206004820152602a60248201527f4552433732313a2062616c616e636520717565727920666f7220746865207a6560448201527f726f2061646472657373000000000000000000000000000000000000000000006064820152608401610e8b565b506001600160a01b03166000908152610162602052604090205490565b60026001541415611a225760405162461bcd60e51b815260206004820152601f60248201527f5265656e7472616e637947756172643a207265656e7472616e742063616c6c006044820152606401610e8b565b60026001553360009081526065602052604090205460ff1680611a54575032611a496130bb565b6001600160a01b0316145b611a865760405162461bcd60e51b81526020600482015260036024820152621093d560ea1b6044820152606401610e8b565b6101c5546000611a94612538565b9050600080611aae83611aa56130bb565b8c8a8a8a611f1b565b9150915060008560001480611ad3575060008481526101cf6020526040902060050154155b9050611aea84611ae16130bb565b8d8d8d8661213f565b828015611af75750600086115b15611b275760008481526101d160209081526040808320600886901c845290915290208054600160ff85161b1790555b611b328b8b8b61355e565b611b3d8c858d613665565b8b6001600160a01b0316611b4f6130bb565b6001600160a01b0316857ffa76a4010d9533e3e964f2930a65fb6042a12fa6ff5b08281837a10b0be7321e888f604051611b93929190918252602082015260400190565b60405180910390a450506001805550505050505050505050565b6101d36020526000908152604090208054611bc790615995565b80601f0160208091040260200160405190810160405280929190818152602001828054611bf390615995565b8015611c405780601f10611c1557610100808354040283529160200191611c40565b820191906000526020600020905b815481529060010190602001808311611c2357829003601f168201915b505050505081565b60008281526101d0602090815260408083206001600160a01b03851684528252808320548584526101cf90925290912060040154810181811015611c8b57506000195b9250929050565b6101c3546001600160a01b031660009081527fc88390e7e62175be0932452175b6a7222b6b094ab0ef984a5153c620345d8975602052604081205460ff16611cda5750600090565b6101c3546001600160a01b03165b905090565b600082815261012d60205260408120611d06908361374d565b9392505050565b6000611d1b81610fe76130bb565b611d286101cb8484614ece565b50505050565b60606101608054610d9290615995565b6000611d4c81610fe76130bb565b612710821115611d8a5760405162461bcd60e51b81526020600482015260096024820152683e204d41585f42505360b81b6044820152606401610e8b565b6040805180820182526001600160a01b03858116808352602080840187815260008a81526101d58352869020945185546001600160a01b031916941693909317845591516001909301929092558251918252810184905285917f7365cf4122f072a3365c20d54eff9b38d73c096c28e1892ec8f5b0e403a0f12d910160405180910390a250505050565b6113e5611e1f6130bb565b8383613759565b60608167ffffffffffffffff811115611e4157611e416154eb565b604051908082528060200260200182016040528015611e7457816020015b6060815260200190600190039081611e5f5790505b50905060005b82811015611f1457611ee430858584818110611e9857611e98615a2f565b9050602002810190611eaa9190615a45565b8080601f01602080910402602001604051908101604052809392919081815260200183838082843760009201919091525061382992505050565b828281518110611ef657611ef6615a2f565b60200260200101819052508080611f0c90615a8c565b915050611e7a565b5092915050565b60008681526101cf60209081526040808320815161010081018352815481526001820154938101939093526002810154918301919091526003810154606083015260048101546080830152600581015460a08301819052600682015460c08401526007909101546001600160a01b031660e0830152829190156121335761201486868080602002602001604051908101604052809392919081815260200183836020028082843760009201919091525050505060a08301516040516bffffffffffffffffffffffff1960608d901b1660208201526034810188905260540160405160208183030381529060405280519060200120613934565b9093509150826120665760405162461bcd60e51b815260206004820152601160248201527f6e6f7420696e2077686974656c6973742e0000000000000000000000000000006044820152606401610e8b565b60008981526101d160209081526040808320600886901c8452909152902054600160ff84161b16156120da5760405162461bcd60e51b815260206004820152600e60248201527f70726f6f6620636c61696d65642e0000000000000000000000000000000000006044820152606401610e8b565b8315806120e75750838711155b6121335760405162461bcd60e51b815260206004820152601760248201527f696e76616c6964207175616e746974792070726f6f662e0000000000000000006044820152606401610e8b565b50965096945050505050565b60008681526101cf6020908152604091829020825161010081018452815481526001820154928101929092526002810154928201929092526003820154606082015260048201546080820152600582015460a0820152600682015460c08201526007909101546001600160a01b0390811660e083018190529085161480156121ca57508060c0015183145b6122165760405162461bcd60e51b815260206004820152601a60248201527f696e76616c69642063757272656e6379206f722070726963652e0000000000006044820152606401610e8b565b6000851180156122325750811580612232575080606001518511155b61227e5760405162461bcd60e51b815260206004820152601160248201527f696e76616c6964207175616e746974792e0000000000000000000000000000006044820152606401610e8b565b80602001518582604001516122939190615aa7565b11156122e15760405162461bcd60e51b815260206004820152601c60248201527f657863656564206d617820636c61696d61626c6520737570706c792e000000006044820152606401610e8b565b6101c454856101c5546122f49190615aa7565b11156123425760405162461bcd60e51b815260206004820152601960248201527f6e6f7420656e6f756768206d696e74656420746f6b656e732e000000000000006044820152606401610e8b565b6101c854158061236357506101c854856101c5546123609190615aa7565b11155b6123af5760405162461bcd60e51b815260206004820152601860248201527f657863656564206d617820746f74616c20737570706c792e00000000000000006044820152606401610e8b565b6101c75415806123e657506101c7546001600160a01b03871660009081526101d460205260409020546123e3908790615aa7565b11155b6124325760405162461bcd60e51b815260206004820152601260248201527f65786365656420636c61696d206c696d697400000000000000000000000000006044820152606401610e8b565b60008061243f8989611c48565b9150915081600014806124525750804210155b61249e5760405162461bcd60e51b815260206004820152600d60248201527f63616e6e6f7420636c61696d2e000000000000000000000000000000000000006044820152606401610e8b565b505050505050505050565b6124ba6124b46130bb565b836131b4565b61252c5760405162461bcd60e51b815260206004820152603160248201527f4552433732313a207472616e736665722063616c6c6572206973206e6f74206f60448201527f776e6572206e6f7220617070726f7665640000000000000000000000000000006064820152608401610e8b565b611d2884848484613a02565b6101ce546101cd54600091829161254f9190615aa7565b90505b6101cd548111156125a8576101cf600061256d600184615abf565b815260200190815260200160002060000154421061259657612590600182615abf565b91505090565b806125a081615ad6565b915050612552565b5060405162461bcd60e51b815260206004820152600b60248201527f21434f4e444954494f4e2e0000000000000000000000000000000000000000006044820152606401610e8b565b606060005b6101cc54811015612722576101cc818154811061261557612615615a2f565b9060005260206000200154831015612710576101d360006101cc838154811061264057612640615a2f565b90600052602060002001548152602001908152602001600020805461266490615995565b1590506126c4576101d260006101cc838154811061268457612684615a2f565b906000526020600020015481526020019081526020016000206040516020016126ad9190615b87565b604051602081830303815290604052915050919050565b6101d260006101cc83815481106126dd576126dd615a2f565b906000526020600020015481526020019081526020016000206126ff84613a8b565b6040516020016126ad929190615ba4565b61271b600182615aa7565b90506125f6565b5050604080516020810190915260008152919050565b600081815261012d60205260408120610d7c90613b89565b60607f9f2df0fed2c77648de5860a4cc508cd0818c85b8b8a1ab4ceeef8d981c8956a661277f81610fe76130bb565b6101cc5485106127d15760405162461bcd60e51b815260206004820152600e60248201527f696e76616c696420696e6465782e0000000000000000000000000000000000006044820152606401610e8b565b60006101cc86815481106127e7576127e7615a2f565b9060005260206000200154905060006101d36000838152602001908152602001600020805461281590615995565b80601f016020809104026020016040519081016040528092919081815260200182805461284190615995565b801561288e5780601f106128635761010080835404028352916020019161288e565b820191906000526020600020905b81548152906001019060200180831161287157829003601f168201915b505050505090508051600014156128e75760405162461bcd60e51b815260206004820152601260248201527f6e6f7468696e6720746f2072657665616c2e00000000000000000000000000006044820152606401610e8b565b6128f2818787613004565b60008381526101d2602090815260409091208251929650612917929091870190614f52565b5060008281526101d36020526040812061293091614fc6565b7f09b52c0c3a3e08761cd3917c8e49275ed1e0982477b54047add8b4d70513bc868285604051612961929190615bc9565b60405180910390a15050509392505050565b7f9f2df0fed2c77648de5860a4cc508cd0818c85b8b8a1ab4ceeef8d981c8956a66129a081610fe76130bb565b6101c45460006129b08883615aa7565b6101c481905560008181526101d2602052604090209091506129d3908888614ece565b506101cc80546001810182556000919091527f9a37fbd5e796e9046c2f5f7e29046a230a4ba9ada48a80535ed93a51fec5cfbc018190558315612a2c5760008181526101d360205260409020612a2a908686614ece565b505b7f2a0365091ef1a40953c670dce28177e37520648a6fdc91506bffac0ab045570d826001612a5a8b83615aa7565b612a649190615abf565b89898989604051612a7a96959493929190615c0b565b60405180910390a15050505050505050565b600082815260fb6020526040902060010154612aaa81610fe76130bb565b610fd48383613492565b6101cc8181548110612ac557600080fd5b600091825260209091200154905081565b600054610100900460ff16612af15760005460ff1615612af5565b303b155b612b675760405162461bcd60e51b815260206004820152602e60248201527f496e697469616c697a61626c653a20636f6e747261637420697320616c72656160448201527f647920696e697469616c697a65640000000000000000000000000000000000006064820152608401610e8b565b600054610100900460ff16158015612b89576000805461ffff19166101011790555b612b91613b93565b612b9a87613c08565b612ba48a8a613c84565b6101ca80546001600160a01b0387811675ffffffffffffffffffffffffffffffffffffffffffff1992831617600160a01b61ffff8981168202929092179094556101c980548784169416939093179087169093029290921790556101c680546001600160a01b0319169188169190911790558751612c2a906101cb9060208b0190614f52565b506101c380546001600160a01b0319166001600160a01b038d16179055612c5260008c613cf9565b612c7c7f9f2df0fed2c77648de5860a4cc508cd0818c85b8b8a1ab4ceeef8d981c8956a68c613cf9565b612ca67f8502233096d909befbda0999bb8ea2f3a6be3c138b9fbf003752a4c8bce86f6c8c613cf9565b612cd17f8502233096d909befbda0999bb8ea2f3a6be3c138b9fbf003752a4c8bce86f6c6000613cf9565b8015612ce3576000805461ff00191690555b5050505050505050505050565b6000612cfe81610fe76130bb565b6101cd546101ce54818415612d1a57612d178284615aa7565b90505b6101ce8690556101cd8190556000805b87811015612eba57801580612d5a5750888882818110612d4c57612d4c615a2f565b905061010002016000013582105b612d8b5760405162461bcd60e51b815260206004820152600260248201526114d560f21b6044820152606401610e8b565b60006101cf81612d9b8487615aa7565b8152602001908152602001600020600201549050898983818110612dc157612dc1615a2f565b9050610100020160200135811115612e1b5760405162461bcd60e51b815260206004820152601a60248201527f6d617820737570706c7920636c61696d656420616c72656164790000000000006044820152606401610e8b565b898983818110612e2d57612e2d615a2f565b610100029190910190506101cf6000612e468588615aa7565b81526020019081526020016000208181612e609190615c4b565b508190506101cf6000612e738588615aa7565b8152602081019190915260400160002060020155898983818110612e9957612e99615a2f565b90506101000201600001359250508080612eb290615a8c565b915050612d2a565b508515612f3a57835b82811015612f345760008181526101cf60209081526040822082815560018101839055600281018390556003810183905560048101839055600581018390556006810192909255600790910180546001600160a01b03191690556101d1905280612f2c81615a8c565b915050612ec3565b50612fd3565b86831115612fd357865b83811015612fd1576101cf6000612f5b8386615aa7565b81526020810191909152604001600090812081815560018101829055600281018290556003810182905560048101829055600581018290556006810182905560070180546001600160a01b03191690556101d190612fb98386615aa7565b81526020015280612fc981615a8c565b915050612f44565b505b7f22ddd1bcb3816651679299dbffccb94973edec10c32e88dc2f4735c7699a02ca8888604051612a7a929190615cbc565b8251604080518083016020019091528181529060005b8181101561307057600085858360405160200161303993929190615d53565b60408051601f19818403018152919052805160209182012088840182015118858401820152613069915082615aa7565b905061301a565b50509392505050565b6101cb8054611bc790615995565b6001600160a01b03163b151590565b60006001600160e01b0319821663780e9d6360e01b1480610d7c5750610d7c82613d03565b6000611ce8613d43565b60008181526101636020526040902080546001600160a01b0319166001600160a01b03841690811790915581906130fb82611782565b6001600160a01b03167f8c5be1e5ebec7d5bd14f71427d1e84f3dd0314c0f7b2291e5b200ac8c7c3b92560405160405180910390a45050565b600082815260fb602090815260408083206001600160a01b038516845290915290205460ff166113e557613172816001600160a01b03166014613d6d565b61317d836020613d6d565b60405160200161318e929190615d65565b60408051601f198184030181529082905262461bcd60e51b8252610e8b9160040161509c565b600081815261016160205260408120546001600160a01b031661322e5760405162461bcd60e51b815260206004820152602c60248201527f4552433732313a206f70657261746f7220717565727920666f72206e6f6e657860448201526b34b9ba32b73a103a37b5b2b760a11b6064820152608401610e8b565b600061323983611782565b9050806001600160a01b0316846001600160a01b031614806132745750836001600160a01b031661326984610e15565b6001600160a01b0316145b806132a557506001600160a01b038082166000908152610164602090815260408083209388168352929052205460ff165b949350505050565b826001600160a01b03166132c082611782565b6001600160a01b03161461333c5760405162461bcd60e51b815260206004820152602560248201527f4552433732313a207472616e736665722066726f6d20696e636f72726563742060448201527f6f776e65720000000000000000000000000000000000000000000000000000006064820152608401610e8b565b6001600160a01b03821661339e5760405162461bcd60e51b8152602060048201526024808201527f4552433732313a207472616e7366657220746f20746865207a65726f206164646044820152637265737360e01b6064820152608401610e8b565b6133a9838383613f16565b6133b46000826130c5565b6001600160a01b0383166000908152610162602052604081208054600192906133de908490615abf565b90915550506001600160a01b03821660009081526101626020526040812080546001929061340d908490615aa7565b90915550506000818152610161602052604080822080546001600160a01b0319166001600160a01b0386811691821790925591518493918716917fddf252ad1be2c89b69c2b068fc378daa952ba7f163c4a11628f55a4df523b3ef91a4505050565b6134798282614065565b600082815261012d60205260409020610fd49082614108565b61349c828261411d565b600082815261012d60205260409020610fd490826141be565b60006134c082611782565b90506134ce81600084613f16565b6134d96000836130c5565b6001600160a01b038116600090815261016260205260408120805460019290613503908490615abf565b90915550506000828152610161602052604080822080546001600160a01b0319169055518391906001600160a01b038416907fddf252ad1be2c89b69c2b068fc378daa952ba7f163c4a11628f55a4df523b3ef908390a45050565b8061356857505050565b600061357482856159e6565b6101c9549091506000906127109061359790600160a01b900461ffff16846159e6565b6135a19190615a1b565b90506001600160a01b03841673eeeeeeeeeeeeeeeeeeeeeeeeeeeeeeeeeeeeeeee1415613617578134146136175760405162461bcd60e51b815260206004820152601660248201527f6d7573742073656e6420746f74616c2070726963652e000000000000000000006044820152606401610e8b565b613636846136236130bb565b6101c9546001600160a01b0316846141d3565b61365e846136426130bb565b6101c6546001600160a01b03166136598587615abf565b6141d3565b5050505050565b60008281526101cf602052604081206002018054839290613687908490615aa7565b909155505060008281526101d06020526040812042916136a56130bb565b6001600160a01b03166001600160a01b0316815260200190815260200160002081905550806101d460006136d76130bb565b6001600160a01b03166001600160a01b0316815260200190815260200160002060008282546137069190615aa7565b90915550506101c55460005b8281101561374357613724858361421d565b61372f600183615aa7565b915061373c600182615aa7565b9050613712565b506101c555505050565b6000611d06838361436e565b816001600160a01b0316836001600160a01b031614156137bb5760405162461bcd60e51b815260206004820152601960248201527f4552433732313a20617070726f766520746f2063616c6c6572000000000000006044820152606401610e8b565b6001600160a01b0383811660008181526101646020908152604080832094871680845294825291829020805460ff191686151590811790915591519182527f17307eab39ab6107e8899845ad3d59bd9653f200f220920489ca2b5937696c31910160405180910390a3505050565b60606001600160a01b0383163b6138a85760405162461bcd60e51b815260206004820152602660248201527f416464726573733a2064656c65676174652063616c6c20746f206e6f6e2d636f60448201527f6e747261637400000000000000000000000000000000000000000000000000006064820152608401610e8b565b600080846001600160a01b0316846040516138c39190615de6565b600060405180830381855af49150503d80600081146138fe576040519150601f19603f3d011682016040523d82523d6000602084013e613903565b606091505b509150915061392b8282604051806060016040528060278152602001615ea360279139614398565b95945050505050565b6000808281805b87518110156139f65761394f6002836159e6565b9150600088828151811061396557613965615a2f565b602002602001015190508084116139a75760408051602081018690529081018290526060016040516020818303038152906040528051906020012093506139e3565b60408051602081018390529081018590526060016040516020818303038152906040528051906020012093506001836139e09190615aa7565b92505b50806139ee81615a8c565b91505061393b565b50941495939450505050565b613a0d8484846132ad565b613a19848484846143d1565b611d285760405162461bcd60e51b815260206004820152603260248201527f4552433732313a207472616e7366657220746f206e6f6e20455243373231526560448201527f63656976657220696d706c656d656e74657200000000000000000000000000006064820152608401610e8b565b606081613aaf5750506040805180820190915260018152600360fc1b602082015290565b8160005b8115613ad95780613ac381615a8c565b9150613ad29050600a83615a1b565b9150613ab3565b60008167ffffffffffffffff811115613af457613af46154eb565b6040519080825280601f01601f191660200182016040528015613b1e576020820181803683370190505b5090505b84156132a557613b33600183615abf565b9150613b40600a86615e02565b613b4b906030615aa7565b60f81b818381518110613b6057613b60615a2f565b60200101906001600160f81b031916908160001a905350613b82600a86615a1b565b9450613b22565b6000610d7c825490565b600054610100900460ff16613bfe5760405162461bcd60e51b815260206004820152602b60248201527f496e697469616c697a61626c653a20636f6e7472616374206973206e6f74206960448201526a6e697469616c697a696e6760a81b6064820152608401610e8b565b613c0661452c565b565b600054610100900460ff16613c735760405162461bcd60e51b815260206004820152602b60248201527f496e697469616c697a61626c653a20636f6e7472616374206973206e6f74206960448201526a6e697469616c697a696e6760a81b6064820152608401610e8b565b613c7b61459d565b61156b81614608565b600054610100900460ff16613cef5760405162461bcd60e51b815260206004820152602b60248201527f496e697469616c697a61626c653a20636f6e7472616374206973206e6f74206960448201526a6e697469616c697a696e6760a81b6064820152608401610e8b565b6113e582826146db565b6113e5828261346f565b60006001600160e01b031982166380ac58cd60e01b1480613d3457506001600160e01b03198216635b5e139f60e01b145b80610d7c5750610d7c8261476f565b3360009081526065602052604081205460ff1615613d68575060131936013560601c90565b503390565b60606000613d7c8360026159e6565b613d87906002615aa7565b67ffffffffffffffff811115613d9f57613d9f6154eb565b6040519080825280601f01601f191660200182016040528015613dc9576020820181803683370190505b509050600360fc1b81600081518110613de457613de4615a2f565b60200101906001600160f81b031916908160001a905350600f60fb1b81600181518110613e1357613e13615a2f565b60200101906001600160f81b031916908160001a9053506000613e378460026159e6565b613e42906001615aa7565b90505b6001811115613ec7577f303132333435363738396162636465660000000000000000000000000000000085600f1660108110613e8357613e83615a2f565b1a60f81b828281518110613e9957613e99615a2f565b60200101906001600160f81b031916908160001a90535060049490941c93613ec081615ad6565b9050613e45565b508315611d065760405162461bcd60e51b815260206004820181905260248201527f537472696e67733a20686578206c656e67746820696e73756666696369656e746044820152606401610e8b565b613f21838383614794565b600080527fde23fa6c6392e300b5ced791de0faa0b28226983a4ab1c05a1ba79ef4d0a13126020527f70e64e82d0337f3fa9071fdb3266f859725ed1fc29697b2e6e986b76cffbfb085460ff16158015613f8357506001600160a01b03831615155b8015613f9757506001600160a01b03821615155b15610fd4576001600160a01b03831660009081527fde23fa6c6392e300b5ced791de0faa0b28226983a4ab1c05a1ba79ef4d0a1312602052604090205460ff168061401957506001600160a01b03821660009081527fde23fa6c6392e300b5ced791de0faa0b28226983a4ab1c05a1ba79ef4d0a1312602052604090205460ff165b610fd45760405162461bcd60e51b815260206004820152600e60248201527f215452414e534645525f524f4c450000000000000000000000000000000000006044820152606401610e8b565b600082815260fb602090815260408083206001600160a01b038516845290915290205460ff166113e557600082815260fb602090815260408083206001600160a01b03851684529091529020805460ff191660011790556140c46130bb565b6001600160a01b0316816001600160a01b0316837f2f8788117e7eff1d82e926ec794901d17c78024a50270940304540a733656f0d60405160405180910390a45050565b6000611d06836001600160a01b03841661484e565b600082815260fb602090815260408083206001600160a01b038516845290915290205460ff16156113e557600082815260fb602090815260408083206001600160a01b03851684529091529020805460ff1916905561417a6130bb565b6001600160a01b0316816001600160a01b0316837ff6391f5c32d9c69d2a47ea670b442974b53935d1edc7fd64eb21e047a839171b60405160405180910390a45050565b6000611d06836001600160a01b03841661489d565b806141dd57611d28565b6001600160a01b03841673eeeeeeeeeeeeeeeeeeeeeeeeeeeeeeeeeeeeeeee14156142115761420c8282614990565b611d28565b611d2884848484614a33565b6001600160a01b0382166142735760405162461bcd60e51b815260206004820181905260248201527f4552433732313a206d696e7420746f20746865207a65726f20616464726573736044820152606401610e8b565b600081815261016160205260409020546001600160a01b0316156142d95760405162461bcd60e51b815260206004820152601c60248201527f4552433732313a20746f6b656e20616c7265616479206d696e746564000000006044820152606401610e8b565b6142e560008383613f16565b6001600160a01b03821660009081526101626020526040812080546001929061430f908490615aa7565b90915550506000818152610161602052604080822080546001600160a01b0319166001600160a01b03861690811790915590518392907fddf252ad1be2c89b69c2b068fc378daa952ba7f163c4a11628f55a4df523b3ef908290a45050565b600082600001828154811061438557614385615a2f565b9060005260206000200154905092915050565b606083156143a7575081611d06565b8251156143b75782518084602001fd5b8160405162461bcd60e51b8152600401610e8b919061509c565b60006001600160a01b0384163b1561452157836001600160a01b031663150b7a026143fa6130bb565b8786866040518563ffffffff1660e01b815260040161441c9493929190615e16565b6020604051808303816000875af1925050508015614457575060408051601f3d908101601f1916820190925261445491810190615e52565b60015b614507573d808015614485576040519150601f19603f3d011682016040523d82523d6000602084013e61448a565b606091505b5080516144ff5760405162461bcd60e51b815260206004820152603260248201527f4552433732313a207472616e7366657220746f206e6f6e20455243373231526560448201527f63656976657220696d706c656d656e74657200000000000000000000000000006064820152608401610e8b565b805181602001fd5b6001600160e01b031916630a85bd0160e11b1490506132a5565b506001949350505050565b600054610100900460ff166145975760405162461bcd60e51b815260206004820152602b60248201527f496e697469616c697a61626c653a20636f6e7472616374206973206e6f74206960448201526a6e697469616c697a696e6760a81b6064820152608401610e8b565b60018055565b600054610100900460ff16613c065760405162461bcd60e51b815260206004820152602b60248201527f496e697469616c697a61626c653a20636f6e7472616374206973206e6f74206960448201526a6e697469616c697a696e6760a81b6064820152608401610e8b565b600054610100900460ff166146735760405162461bcd60e51b815260206004820152602b60248201527f496e697469616c697a61626c653a20636f6e7472616374206973206e6f74206960448201526a6e697469616c697a696e6760a81b6064820152608401610e8b565b60005b81518110156113e55760016065600084848151811061469757614697615a2f565b6020908102919091018101516001600160a01b03168252810191909152604001600020805460ff1916911515919091179055806146d381615a8c565b915050614676565b600054610100900460ff166147465760405162461bcd60e51b815260206004820152602b60248201527f496e697469616c697a61626c653a20636f6e7472616374206973206e6f74206960448201526a6e697469616c697a696e6760a81b6064820152608401610e8b565b815161475a9061015f906020850190614f52565b508051610fd490610160906020840190614f52565b60006001600160e01b03198216635a05180f60e01b1480610d7c5750610d7c82614a8c565b6001600160a01b0383166147f1576147ec816101938054600083815261019460205260408120829055600182018355919091527ffc8af01f449989052b52093a58fc9f42d0b11f0c6dd5dca0463dab62346ccc680155565b614814565b816001600160a01b0316836001600160a01b031614614814576148148382614ac1565b6001600160a01b03821661482b57610fd481614b63565b826001600160a01b0316826001600160a01b031614610fd457610fd48282614c18565b600081815260018301602052604081205461489557508154600181810184556000848152602080822090930184905584548482528286019093526040902091909155610d7c565b506000610d7c565b600081815260018301602052604081205480156149865760006148c1600183615abf565b85549091506000906148d590600190615abf565b905081811461493a5760008660000182815481106148f5576148f5615a2f565b906000526020600020015490508087600001848154811061491857614918615a2f565b6000918252602080832090910192909255918252600188019052604090208390555b855486908061494b5761494b615e6f565b600190038181906000526020600020016000905590558560010160008681526020019081526020016000206000905560019350505050610d7c565b6000915050610d7c565b6000826001600160a01b03168260405160006040518083038185875af1925050503d80600081146149dd576040519150601f19603f3d011682016040523d82523d6000602084013e6149e2565b606091505b5050905080610fd45760405162461bcd60e51b815260206004820152601c60248201527f6e617469766520746f6b656e207472616e73666572206661696c6564000000006044820152606401610e8b565b816001600160a01b0316836001600160a01b03161415614a5257611d28565b6001600160a01b038316301415614a775761420c6001600160a01b0385168383614c5e565b611d286001600160a01b038516848484614cd6565b60006001600160e01b03198216637965db0b60e01b1480610d7c57506301ffc9a760e01b6001600160e01b0319831614610d7c565b60006001614ace84611934565b614ad89190615abf565b60008381526101926020526040902054909150808214614b2e576001600160a01b038416600090815261019160209081526040808320858452825280832054848452818420819055835261019290915290208190555b506000918252610192602090815260408084208490556001600160a01b03909416835261019181528383209183525290812055565b61019354600090614b7690600190615abf565b600083815261019460205260408120546101938054939450909284908110614ba057614ba0615a2f565b90600052602060002001549050806101938381548110614bc257614bc2615a2f565b60009182526020808320909101929092558281526101949091526040808220849055858252812055610193805480614bfc57614bfc615e6f565b6001900381819060005260206000200160009055905550505050565b6000614c2383611934565b6001600160a01b0390931660009081526101916020908152604080832086845282528083208590559382526101929052919091209190915550565b6040516001600160a01b038316602482015260448101829052610fd490849063a9059cbb60e01b906064015b60408051601f198184030181529190526020810180517bffffffffffffffffffffffffffffffffffffffffffffffffffffffff166001600160e01b031990931692909217909152614d0e565b6040516001600160a01b0380851660248301528316604482015260648101829052611d289085906323b872dd60e01b90608401614c8a565b6000614d63826040518060400160405280602081526020017f5361666545524332303a206c6f772d6c6576656c2063616c6c206661696c6564815250856001600160a01b0316614df39092919063ffffffff16565b805190915015610fd45780806020019051810190614d819190615e85565b610fd45760405162461bcd60e51b815260206004820152602a60248201527f5361666545524332303a204552433230206f7065726174696f6e20646964206e60448201527f6f742073756363656564000000000000000000000000000000000000000000006064820152608401610e8b565b60606132a58484600085856001600160a01b0385163b614e555760405162461bcd60e51b815260206004820152601d60248201527f416464726573733a2063616c6c20746f206e6f6e2d636f6e74726163740000006044820152606401610e8b565b600080866001600160a01b03168587604051614e719190615de6565b60006040518083038185875af1925050503d8060008114614eae576040519150601f19603f3d011682016040523d82523d6000602084013e614eb3565b606091505b5091509150614ec3828286614398565b979650505050505050565b828054614eda90615995565b90600052602060002090601f016020900481019282614efc5760008555614f42565b82601f10614f155782800160ff19823516178555614f42565b82800160010185558215614f42579182015b82811115614f42578235825591602001919060010190614f27565b50614f4e929150614ffc565b5090565b828054614f5e90615995565b90600052602060002090601f016020900481019282614f805760008555614f42565b82601f10614f9957805160ff1916838001178555614f42565b82800160010185558215614f42579182015b82811115614f42578251825591602001919060010190614fab565b508054614fd290615995565b6000825580601f10614fe2575050565b601f01602090049060005260206000209081019061156b91905b5b80821115614f4e5760008155600101614ffd565b6001600160e01b03198116811461156b57600080fd5b60006020828403121561503957600080fd5b8135611d0681615011565b60005b8381101561505f578181015183820152602001615047565b83811115611d285750506000910152565b60008151808452615088816020860160208601615044565b601f01601f19169290920160200192915050565b602081526000611d066020830184615070565b6000602082840312156150c157600080fd5b5035919050565b6001600160a01b038116811461156b57600080fd5b80356150e8816150c8565b919050565b6000806040838503121561510057600080fd5b823561510b816150c8565b946020939093013593505050565b60006020828403121561512b57600080fd5b8135611d06816150c8565b60008060006060848603121561514b57600080fd5b8335615156816150c8565b92506020840135615166816150c8565b929592945050506040919091013590565b6000806040838503121561518a57600080fd5b50508035926020909101359150565b600080604083850312156151ac57600080fd5b8235915060208301356151be816150c8565b809150509250929050565b60008083601f8401126151db57600080fd5b50813567ffffffffffffffff8111156151f357600080fd5b6020830191508360208260051b8501011115611c8b57600080fd5b600080600080600080600060c0888a03121561522957600080fd5b8735615234816150c8565b965060208801359550604088013561524b816150c8565b945060608801359350608088013567ffffffffffffffff81111561526e57600080fd5b61527a8a828b016151c9565b989b979a5095989497959660a090950135949350505050565b60008083601f8401126152a557600080fd5b50813567ffffffffffffffff8111156152bd57600080fd5b602083019150836020828501011115611c8b57600080fd5b600080602083850312156152e857600080fd5b823567ffffffffffffffff8111156152ff57600080fd5b61530b85828601615293565b90969095509350505050565b60008060006060848603121561532c57600080fd5b833592506020840135615166816150c8565b801515811461156b57600080fd5b6000806040838503121561535f57600080fd5b823561536a816150c8565b915060208301356151be8161533e565b6000806020838503121561538d57600080fd5b823567ffffffffffffffff8111156153a457600080fd5b61530b858286016151c9565b6000602080830181845280855180835260408601915060408160051b870101925083870160005b8281101561540557603f198886030184526153f3858351615070565b945092850192908501906001016153d7565b5092979650505050505050565b60008060008060008060a0878903121561542b57600080fd5b86359550602087013561543d816150c8565b945060408701359350606087013567ffffffffffffffff81111561546057600080fd5b61546c89828a016151c9565b979a9699509497949695608090950135949350505050565b60008060008060008060c0878903121561549d57600080fd5b8635955060208701356154af816150c8565b94506040870135935060608701356154c6816150c8565b92506080870135915060a08701356154dd8161533e565b809150509295509295509295565b634e487b7160e01b600052604160045260246000fd5b604051601f8201601f1916810167ffffffffffffffff8111828210171561552a5761552a6154eb565b604052919050565b600082601f83011261554357600080fd5b813567ffffffffffffffff81111561555d5761555d6154eb565b615570601f8201601f1916602001615501565b81815284602083860101111561558557600080fd5b816020850160208301376000918101602001919091529392505050565b600080600080608085870312156155b857600080fd5b84356155c3816150c8565b935060208501356155d3816150c8565b925060408501359150606085013567ffffffffffffffff8111156155f657600080fd5b61560287828801615532565b91505092959194509250565b60008060006040848603121561562357600080fd5b83359250602084013567ffffffffffffffff81111561564157600080fd5b61564d86828701615293565b9497909650939450505050565b60008060008060006060868803121561567257600080fd5b85359450602086013567ffffffffffffffff8082111561569157600080fd5b61569d89838a01615293565b909650945060408801359150808211156156b657600080fd5b506156c388828901615293565b969995985093965092949392505050565b600082601f8301126156e557600080fd5b8135602067ffffffffffffffff821115615701576157016154eb565b8160051b615710828201615501565b928352848101820192828101908785111561572a57600080fd5b83870192505b84831015614ec3578235615743816150c8565b82529183019190830190615730565b80356fffffffffffffffffffffffffffffffff811681146150e857600080fd5b6000806000806000806000806000806101408b8d03121561579257600080fd5b61579b8b6150dd565b995060208b013567ffffffffffffffff808211156157b857600080fd5b6157c48e838f01615532565b9a5060408d01359150808211156157da57600080fd5b6157e68e838f01615532565b995060608d01359150808211156157fc57600080fd5b6158088e838f01615532565b985060808d013591508082111561581e57600080fd5b5061582b8d828e016156d4565b96505061583a60a08c016150dd565b945061584860c08c016150dd565b935061585660e08c01615752565b92506158656101008c01615752565b91506158746101208c016150dd565b90509295989b9194979a5092959850565b60008060006040848603121561589a57600080fd5b833567ffffffffffffffff808211156158b257600080fd5b818601915086601f8301126158c657600080fd5b8135818111156158d557600080fd5b8760208260081b85010111156158ea57600080fd5b602092830195509350508401356159008161533e565b809150509250925092565b60008060006040848603121561592057600080fd5b833567ffffffffffffffff8082111561593857600080fd5b61594487838801615532565b9450602086013591508082111561595a57600080fd5b5061564d86828701615293565b6000806040838503121561597a57600080fd5b8235615985816150c8565b915060208301356151be816150c8565b600181811c908216806159a957607f821691505b602082108114156159ca57634e487b7160e01b600052602260045260246000fd5b50919050565b634e487b7160e01b600052601160045260246000fd5b6000816000190483118215151615615a0057615a006159d0565b500290565b634e487b7160e01b600052601260045260246000fd5b600082615a2a57615a2a615a05565b500490565b634e487b7160e01b600052603260045260246000fd5b6000808335601e19843603018112615a5c57600080fd5b83018035915067ffffffffffffffff821115615a7757600080fd5b602001915036819003821315611c8b57600080fd5b6000600019821415615aa057615aa06159d0565b5060010190565b60008219821115615aba57615aba6159d0565b500190565b600082821015615ad157615ad16159d0565b500390565b600081615ae557615ae56159d0565b506000190190565b8054600090600181811c9080831680615b0757607f831692505b6020808410821415615b2957634e487b7160e01b600052602260045260246000fd5b818015615b3d5760018114615b4e57615b7b565b60ff19861689528489019650615b7b565b60008881526020902060005b86811015615b735781548b820152908501908301615b5a565b505084890196505b50505050505092915050565b6000615b938284615aed565b600360fc1b81526001019392505050565b6000615bb08285615aed565b8351615bc0818360208801615044565b01949350505050565b8281526040602082015260006132a56040830184615070565b81835281816020850137506000828201602090810191909152601f909101601f19169091010190565b868152856020820152608060408201526000615c2b608083018688615be2565b8281036060840152615c3e818587615be2565b9998505050505050505050565b813581556020820135600182015560408201356002820155606082013560038201556080820135600482015560a0820135600582015560c082013560068201556007810160e0830135615c9d816150c8565b6001600160a01b0381166001600160a01b031983541617825550505050565b6020808252818101839052600090604080840186845b87811015615d46578135835284820135858401528382013584840152606080830135908401526080808301359084015260a0808301359084015260c0808301359084015260e080830135615d25816150c8565b6001600160a01b031690840152610100928301929190910190600101615cd2565b5090979650505050505050565b82848237909101908152602001919050565b7f416363657373436f6e74726f6c3a206163636f756e7420000000000000000000815260008351615d9d816017850160208801615044565b7f206973206d697373696e6720726f6c65200000000000000000000000000000006017918401918201528351615dda816028840160208801615044565b01602801949350505050565b60008251615df8818460208701615044565b9190910192915050565b600082615e1157615e11615a05565b500690565b60006001600160a01b03808716835280861660208401525083604083015260806060830152615e486080830184615070565b9695505050505050565b600060208284031215615e6457600080fd5b8151611d0681615011565b634e487b7160e01b600052603160045260246000fd5b600060208284031215615e9757600080fd5b8151611d068161533e56fe416464726573733a206c6f772d6c6576656c2064656c65676174652063616c6c206661696c6564a26469706673582212205a816fa5c833f2c220e851795f507db78467961a98b8fe571f5dc2e8d21189b464736f6c634300080c0033",
  "linkReferences": {},
  "deployedLinkReferences": {}
}